:100000000C9462000C94D0070C94A9070C94F70789
:100010000C94F7070C94F7070C948A000C948A0050
:100020000C948A000C948A000C948A000C94240985
:100030000C948A000C948A000C948A000C948A0018
:100040000C945F070C948A000C942D070C940707FE
:100050000C948A000C948A000C948A000C948A00F8
:100060000C9405080C948A0000000000240027006E
:100070002A0000000000250028002B0000000000DE
:1000800023002600290004040404040404040202DA
:100090000202020203030303030301020408102007
:1000A0004080010204081020010204081020000012
:1000B0000008000201000003040700000000000027
:1000C0000000E00911241FBECFEFD8E0DEBFCDBF96
:1000D00011E0A0E0B1E0E6E5FFE102C005900D927D
:1000E000A43BB107D9F726E0A4EBB1E001C01D9213
:1000F000AF3CB207E1F710E0C2E6D0E004C02197C0
:10010000FE010E947E0EC136D107C9F70E94550B31
:100110000C94A90F0C9400008F929F92AF92BF9203
:10012000FF920F931F93CF93DF93F090B6062BE0CF
:100130002F1508F44CC02091B80608E512E0021B08
:10014000110927FD1395000F111F000F111F20919A
:10015000B706C8E8D0E0C21BD10927FDD395CC0F64
:10016000DD1FCC0FDD1F4E010D2E000CAA08BB08B1
:100170009801012E000C440B550B281939094A0926
:100180005B09DC010E945B0E24EB30E040E050E0B4
:100190000E94310E820E931EA41EB51E8C169D0663
:1001A0002CF0E801801691060CF4E4012297CC0FA4
:1001B000DD1F2FB7F8948F2D90E0FC01EE0FFF1F8D
:1001C000E80FF91FE558F94FD283C1832FBFDF91A4
:1001D000CF911F910F91FF90BF90AF909F908F9004
:1001E000089508950895AF92BF92CF92DF92EF9253
:1001F000FF920F931F93CF93DF936C017B018B01D1
:10020000040F151FEB015E01AE18BF08C017D10720
:1002100059F06991D601ED91FC910190F081E02DAA
:10022000C6010995892B79F7C501DF91CF911F91FF
:100230000F91FF90EF90DF90CF90BF90AF90089517
:10024000FC01538D448D252F30E0842F90E0821BDC
:10025000930B541710F0CF96089501970895FC0161
:10026000918D828D981761F0A28DAE0FBF2FB11DB9
:100270005D968C91928D9F5F9F73928F90E0089511
:100280008FEF9FEF0895FC01918D828D981731F0CB
:10029000828DE80FF11D858D90E008958FEF9FEF1F
:1002A0000895FC01918D228D892F90E0805C9F4FF5
:1002B000821B91098F739927089585E293E00E942C
:1002C000510121E0892B09F420E0822F089580E07C
:1002D00090E0892B29F00E945D0181110C940000AF
:1002E0000895FC01A48DA80FB92FB11DA35ABF4FCB
:1002F0002C91848D90E001968F739927848FA68925
:10030000B7892C93A089B1898C91837080648C9378
:10031000938D848D981306C00288F389E02D808127
:100320008F7D80830895EF92FF920F931F93CF9359
:10033000DF93EC0181E0888F9B8D8C8D98131AC020
:10034000E889F989808185FF15C09FB7F894EE8907
:10035000FF896083E889F989808183708064808364
:100360009FBF81E090E0DF91CF911F910F91FF90AF
:10037000EF900895F62E0B8D10E00F5F1F4F0F7357
:100380001127E02E8C8D8E110CC00FB607FCFACF12
:10039000E889F989808185FFF5CFCE010E9471013E
:1003A000F1CFEB8DEC0FFD2FF11DE35AFF4FF082E3
:1003B0009FB7F8940B8FEA89FB8980818062CFCF49
:1003C000CF93DF93EC01888D8823B9F0AA89BB898C
:1003D000E889F9898C9185FD03C0808186FD0DC077
:1003E0000FB607FCF7CF8C9185FFF2CF808185FF98
:1003F000EDCFCE010E947101E9CFDF91CF91089539
:10040000833081F028F4813099F08230A9F008958A
:100410008730A9F08830C9F08430B1F48091800031
:100420008F7D03C0809180008F7780938000089536
:1004300084B58F7784BD089584B58F7DFBCF80917F
:10044000B0008F778093B00008958091B0008F7DC9
:10045000F9CFCF93DF93282F30E0F901E255FF4F1A
:100460008491F901E656FF4FD491F901EA57FF4F05
:10047000C491CC23A1F081110E940002EC2FF0E086
:10048000EE0FFF1FE458FF4FA591B491EC91ED23BF
:1004900081E090E009F480E0DF91CF91089580E061
:1004A00090E0FACF1F93CF93DF93282F30E0F9012C
:1004B000E255FF4F8491F901E656FF4FD491F901BF
:1004C000EA57FF4FC491CC23A9F0162F81110E9447
:1004D0000002EC2FF0E0EE0FFF1FEE58FF4FA5914A
:1004E000B4918FB7F894EC91111108C0D095DE2328
:1004F000DC938FBFDF91CF911F910895DE2BF8CF52
:10050000CF93DF9390E0FC01E656FF4F24918A578A
:100510009F4FFC0184918823C9F090E0880F991FB8
:10052000FC01E859FF4FA591B491FC01EE58FF4F33
:10053000C591D49161110DC09FB7F8948C9120950D
:1005400082238C938881282328839FBFDF91CF91BA
:100550000895623051F49FB7F8943C91822F8095B2
:1005600083238C93E8812E2BEFCF8FB7F894EC91F7
:100570002E2B2C938FBFEACF3FB7F89480911103B5
:1005800090911203A0911303B091140326B5A89B78
:1005900005C02F3F19F00196A11DB11D3FBFBA2F15
:1005A000A92F982F8827BC01CD01620F711D811DD5
:1005B000911D42E0660F771F881F991F4A95D1F75A
:1005C00008958F929F92AF92BF92CF92DF92EF9257
:1005D000FF924B015C010E94BC026B017C010E94F6
:1005E000BC026C197D098E099F09683E7340810524
:1005F0009105A8F321E0821A9108A108B10888EEBC
:10060000C80E83E0D81EE11CF11C81149104A104E2
:10061000B10429F7FF90EF90DF90CF90BF90AF909B
:100620009F908F900895089508950F931F93CF93EF
:10063000DF93EC018A81882321F061E088810E94A8
:10064000800260E088810E94520283E090E001977E
:10065000F1F761E088810E94520283E290E0019705
:10066000F1F760E088810E9452028A81882321F09C
:1006700060E088810E9480020E94BC026B837C83C0
:100680008D839E8389810E942902892B99F40E947F
:10069000BC020B811C812D813E81601B710B820B82
:1006A000930B0F81188529853A85061717072807A8
:1006B000390740F70E94BC026B837C838D839E8345
:1006C00089810E942902892B99F00E94BC020B812A
:1006D0001C812D813E81601B710B820B930B0F815E
:1006E000188529853A85061717072807390740F71F
:1006F0000E94BC022B813C81CB01821B930BDF91BA
:10070000CF911F910F910895089520919B02260F7C
:100710003327331F21323105ECF42091E402FC0130
:1007200090E080E0243069F082E00895A0919B027F
:100730002191AC0145585D4FA40FB52FB11D2C93ED
:100740000196861798F380919B02680F60939B0235
:1007500080E0089581E008951092E40281E08093A2
:10076000E3021092BE0261E082E10E94520261E067
:1007700083E10E945202E9EBF0E080818E7F80836A
:1007800080818D7F808388E48093B80085E48093A6
:10079000BC000895CF93DF9391E090937A02882371
:1007A000B9F0C091B800D091BA008091BC008A7BAA
:1007B0008093BC0060E082E10E94520260E083E12D
:1007C0000E9452020E94AC03D093BA00C093B800BA
:1007D000DF91CF9108950895E0911C0380911B0350
:1007E000E81730F4F0E0E65AFD4F808190E008957C
:1007F0008FEF9FEF089590911C0380911B032FEFC3
:100800003FEF981748F4E92FF0E0E65AFD4F2081BA
:1008100030E09F5F90931C03C901089580911B03F2
:1008200090911C03891B990B0895CF92DF92EF9250
:10083000FF920F931F93CF93DF937C01CB018A012B
:100840002091EA02222389F0EB016B01C40ED51E30
:10085000CC15DD0569F06991D701ED91FC9101900E
:10086000F081E02DC7010995F3CF642F0E94850325
:10087000C801DF91CF911F910F91FF90EF90DF9012
:10088000CF900895CF93DF931F92CDB7DEB76983E2
:100890002091EA022223F9F020911903203258F026
:1008A00021E030E0FC013383228390E080E00F9070
:1008B000DF91CF91089580911A03E82FF0E0E55180
:1008C000FD4F998190838F5F80931A038093190362
:1008D00081E090E0ECCF61E0CE0101960E948503BB
:1008E000F7CFCF92DF92EF92FF920F931F93CF93A8
:1008F000DF93FC01C48121E02093EA02C0930B0343
:1009000010921A03109219038385682B8FE696E0E4
:100910000E944204D0911903D13208F092C00E9483
:10092000BC026B017C018091E402811165C082E010
:100930008093E40281E08093E3028FEF8093E202F0
:100940001092E102D093E002ABEEB2E0E0ECF2E014
:1009500080E0D81385C01092BF028091BF02CC0FF7
:10096000C82BC093BF028091BE02813009F07CC0C9
:100970001092BE020E94BC026B017C018091BF02FA
:100980008093BB008091E6029091E702A091E8027B
:10099000B091E902892B8A2B8B2B99F00E94BC0223
:1009A0000091E6021091E7022091E8023091E902FD
:1009B0006C197D098E099F09061717072807390743
:1009C000E0F18091BC0083FDD9CF85EC8093BC0021
:1009D0000E94BC026B017C018091E402823009F428
:1009E00045C08091E2028F3F61F18091E202803246
:1009F00041F18091E20225C08091E6029091E702E8
:100A0000A091E802B091E902892B8A2B8B2B09F483
:100A10008ACF0E94BC020091E6021091E702209169
:100A2000E8023091E9026C197D098E099F090617C9
:100A300017072807390708F076CF8091E5020E9452
:100A4000CA0310921A03109219031092EA02DF915E
:100A5000CF911F910F91FF90EF90DF90CF9008956D
:100A60009D9191938F5F75CF85EEB0CF8091E60217
:100A70009091E702A091E802B091E902892B8A2BBC
:100A80008B2B09F4A9CF0E94BC020091E6021091C1
:100A9000E7022091E8023091E9026C197D098E0984
:100AA0009F09061717072807390708F095CFC5CF04
:100AB00090E080E00895CF93DF931092240310928A
:100AC000230310922203109221038BEA96E00E94E6
:100AD0001503EC0180EA96E00E941503C831D1406D
:100AE00030F421E030E03093240320932303883155
:100AF000914030F481E090E09093220380932103B1
:100B0000DF91CF9108950F931F93CF938C01C62F40
:100B10000E9471046C2F6460C8010E9471046C2FE4
:100B20006B7FC8010E94710483EC90E00197F1F79C
:100B3000CF911F910F9108950F931F93CF93DF9340
:100B40008C01D62FC42F607F642B0E94830580E127
:100B5000D89FB00111246C2BC801DF91CF911F9158
:100B60000F910C948305CF93DF93CDB7DEB7289711
:100B70000FB6F894DEBF0FBECDBF98E0EDE0F1E018
:100B8000DE01119601900D929A95E1F79091C106C0
:100B9000961708F46FEF262F30E0220F331F41E045
:100BA00050E04C0F5D1F240F351FF9016081680F65
:100BB000606840E089EB96E028960FB6F894DEBFB7
:100BC0000FBECDBFDF91CF910C949C0541E00E94F8
:100BD0009C0581E090E00895FB0101900020E9F779
:100BE0003197AF01461B570BDC01ED91FC91028060
:100BF000F381E02D09948F929F92AF92BF92EF9272
:100C0000FF920F931F93CF93DF93CDB7DEB7A197DA
:100C10000FB6F894DEBF0FBECDBF7C01FA01CB0149
:100C200019A2223008F42AE08E010F5D1F4F822E98
:100C3000912CB12CA12CBF01A50194010E940F0E93
:100C4000F901CA016A300CF5605DD8016E938D011F
:100C5000232B242B252B79F790E080E0109721F0AF
:100C6000BD01C7010E94EC05A1960FB6F894DEBF46
:100C70000FBECDBFDF91CF911F910F91FF90EF90ED
:100C8000BF90AF909F908F900895695CDECFCF9218
:100C9000DF92EF92FF920F931F93CF93DF936B013D
:100CA000770FEE08FF08F7FE1FC0EC01E881F9811D
:100CB0000190F081E02D6DE209958C0144275527C4
:100CC000BA014C195D096E097F092AE0CE010E9424
:100CD000FB05800F911FDF91CF911F910F91FF9026
:100CE000EF90DF90CF9008952AE0B701A601DF9141
:100CF000CF911F910F91FF90EF90DF90CF900C94C8
:100D0000FB058F929F92AF92BF92CF92DF92EF92AC
:100D1000FF920F931F93CF93DF937C01EB016C0144
:100D200082E0C80ED11C4701E5E08E0E911C10E058
:100D300000E0F60141916F0150E070E060E02AE0D0
:100D4000CE010E94FB055C01E881F9810190F081F0
:100D5000E02D6EE2CE0109958A0D9B1D080F191F2B
:100D6000C814D90431F7F701458150E070E060E024
:100D70002AE0CE010E94FB05800F911FDF91CF91E9
:100D80001F910F91FF90EF90DF90CF90BF90AF90A9
:100D90009F908F9008950C94EC050C94200F85ED96
:100DA0008093BC008091E6029091E702A091E80256
:100DB000B091E9020796A11DB11D23E0B695A79554
:100DC000979587952A95D1F72091BC0024FD03C003
:100DD0001092E40208954091E6025091E70260917A
:100DE000E8027091E902452B462B472B69F30097E7
:100DF000A105B10541F02AE22A95F1F700C001975B
:100E0000A109B109E1CF8091E5020C94CA031F92B8
:100E10000F920FB60F9211242F933F934F935F932E
:100E20006F937F938F939F93AF93BF93EF93FF93B2
:100E300085E293E00E947101FF91EF91BF91AF9124
:100E40009F918F917F916F915F914F913F912F91E2
:100E50000F900FBE0F901F9018951F920F920FB614
:100E60000F9211242F938F939F93EF93FF93E09111
:100E70003503F09136038081E0913B03F0913C0310
:100E800082FD1BC0908180913E038F5F8F73209104
:100E90003F03821741F0E0913E03F0E0EB5DFC4F31
:100EA000958F80933E03FF91EF919F918F912F91AA
:100EB0000F900FBE0F901F9018958081F4CF1F9256
:100EC0000F920FB60F9211242F933F938F939F93FE
:100ED000AF93BF9380910D0390910E03A0910F03E8
:100EE000B091100330910C0323E0230F2D3758F5F8
:100EF0000196A11DB11D20930C0380930D039093C7
:100F00000E03A0930F03B0931003809111039091EF
:100F10001203A0911303B09114030196A11DB11DFA
:100F20008093110390931203A0931303B0931403BF
:100F3000BF91AF919F918F913F912F910F900FBED5
:100F40000F901F90189526E8230F0296A11DB11D42
:100F5000D2CF1F920F920FB60F9211242F933F936F
:100F60004F935F936F937F938F939F93AF93BF93B1
:100F7000EF93FF93E0910301F09104010995FF9134
:100F8000EF91BF91AF919F918F917F916F915F9101
:100F90004F913F912F910F900FBE0F901F9018957A
:100FA0001F920F920FB60F9211242F933F934F93DE
:100FB0005F936F937F938F939F93AF93BF93EF93C1
:100FC000FF93E0910101F09102010995FF91EF91EA
:100FD000BF91AF919F918F917F916F915F914F9151
:100FE0003F912F910F900FBE0F901F9018951F9259
:100FF0000F920FB60F9211248F93809100008F9162
:101000000F900FBE0F901F9018951F920F920FB662
:101010000F9211242F933F934F935F936F937F937E
:101020008F939F93AF93BF93EF93FF938091B900FA
:10103000887F803609F44AC0F0F5883209F4A7C0E9
:1010400018F5803109F49BC0B8F4882309F4F9C07D
:10105000883009F494C0FF91EF91BF91AF919F91B7
:101060008F917F916F915F914F913F912F910F9051
:101070000FBE0F901F901895883109F488C08032F8
:1010800051F78093E20214C0803409F49DC040F40B
:101090008033B9F38833F9F68093E20285ECB0C06F
:1010A000803509F485C0883509F496C0883499F6EE
:1010B0000E94CF06D0CF883909F48CC038F5883724
:1010C00029F050F4883611F0803729F683E08093B8
:1010D000E4021092BD0257C0883809F47BC0803901
:1010E00019F0803809F0B7CF8091BD02803208F046
:1010F00071C0E091BD0281E08E0F8093BD028091AE
:10110000BB00F0E0E356FD4F80833DC0803B39F0EB
:10111000E0F4803A09F479C0883A09F09CCF84E081
:101120008093E40210929C0210929B02E0911703BC
:10113000F0911803099580919B0281110FC081E005
:1011400080939B0210927B0209C0803C09F4A6CFD9
:10115000883C09F4A3CF883B09F07DCFE0919C0245
:1011600081E08E0F80939C02F0E0E558FD4F808176
:101170008093BB0090919C0280919B0229C080913A
:10118000BF028093BB0085EC8093BC0064CF90913C
:10119000E1028091E002981758F5E091E10281E0C8
:1011A0008E0F8093E102F0E0E054FD4F8081E9CFA3
:1011B000E091E10281E08E0F8093E1028091BB001B
:1011C000F0E0E054FD4F80839091E1028091E002D5
:1011D0009817C8F285E8D8CFE091E10281E08E0F40
:1011E0008093E1028091BB00F0E0E054FD4F8083EA
:1011F0008091E30281115CCF81E08093BE0284EA9A
:101200008093BC001092E40226CF85EC8093BC0052
:101210001092E4028091BD02803230F4E091BD0270
:10122000F0E0E356FD4F10826091BD0270E0E09166
:101230001503F09116038DE992E009951092BD0215
:101240000ACF1092E20234CF1F920F920FB60F9284
:1012500011242F933F934F935F936F937F938F93BB
:101260009F93AF93BF93CF93DF93EF93FF938091BF
:101270005902C0919F06D0E087FF24C010928500DC
:1012800010928400809159028F5F8093590280915F
:101290005902082E000C990B8C179D0724F480919D
:1012A00059028C30C4F1809184009091850004969D
:1012B00080349C4908F47AC0809184009091850024
:1012C000049676C080915902082E000C990B8C1759
:1012D0009D07C4F6E09159028E2FEE0F990BFC0189
:1012E000EE0FFF1FE80FF91FE558F94F808186FFC9
:1012F000C9CFE09159028E2FEE0F990BFC01EE0F32
:10130000FF1FE80FF91FE558F94F808160E08F73E8
:101310000E945202B7CF2091840030918500E09165
:1013200059028E2FEE0F990BFC01EE0FFF1FE80FF5
:10133000F91FE558F94F81819281820F931F909395
:10134000890080938800E09159028E2FEE0F990B4F
:10135000FC01EE0FFF1FE80FF91FE558F94F8081E0
:1013600086FF11C0E09159028E2FEE0F990BFC0100
:10137000EE0FFF1FE80FF91FE558F94F808161E07C
:101380008F730E945202FF91EF91DF91CF91BF9135
:10139000AF919F918F917F916F915F914F913F910D
:1013A0002F910F900FBE0F901F90189580E49CE92D
:1013B00090938900809388008FEF80935902E3CF48
:1013C000CF92DF92EF92FF92CF93DF931092280398
:1013D0001092270388EE93E0A0E0B0E08093290309
:1013E00090932A03A0932B03B0932C0389E191E0FF
:1013F000909326038093250385EC90E0909332032D
:101400008093310384EC90E0909334038093330312
:1014100080EC90E0909336038093350381EC90E06C
:10142000909338038093370382EC90E090933A03D3
:101430008093390386EC90E090933C0380933B03C8
:1014400010923E0310923F0310924003109241030A
:1014500081E591E09093D5058093D4051092D6054F
:101460001092D7051092D8051092D9058BE291E021
:101470009093C3038093C203E2ECF3E02FEF30E1DB
:101480001282238311861086158E148E178E168E67
:1014900011A210A2DF019296ED01832F19928A9575
:1014A000E9F7F096C5E0E23DFC0751F781E591E0F0
:1014B0009093DB058093DA051092DC051092DD0530
:1014C0001092DE051092DF059093E1058093E00510
:1014D0001092E2051092E3051092E4051092E505E2
:1014E0009093E7058093E6051092E8051092E905D0
:1014F0001092EA051092EB059093ED058093EC05B0
:101500001092EE051092EF051092F0051092F10581
:101510009093F3058093F2051092F4051092F5056F
:101520001092F6051092F705909364068093630677
:101530001092650610926606109267061092680671
:101540001092F9051092F8051092180610921706DD
:101550004FEF50E050931A064093190640E65AEEBA
:1015600060E070E040935F06509360066093610610
:101570007093620690936A068093690610926B06D8
:1015800010926C0610926D0610926E061092720602
:101590001092710648EE53E060E070E040937306ED
:1015A00050937406609375067093760643E351E09A
:1015B0005093700640936F069093C6068093C506BD
:1015C0001092C7061092C8061092C9061092CA0659
:1015D0001092BC061092BB0685E491E09093BA0687
:1015E0008093B90687E28093BD063093C20682E0FD
:1015F0008093C3061092C40680919F068C3008F039
:1016000051C091E0980F90939F068093B60690E0AA
:10161000FC01EE0FFF1FE80FF91FE558F94F88EBAB
:101620009BE09283818385E08093AB0686E0809384
:10163000AC061092AD0661E085E00E94800260E099
:101640008091AC060E94800280E2C82E8EE4D82EE3
:10165000E12CF12CC092B206D092B306E092B4060F
:10166000F092B50687E08093A00688E08093A106FB
:101670001092A20661E087E00E94800260E0809103
:10168000A1060E948002C092A706D092A806E0920E
:10169000A906F092AA06DF91CF91FF90EF90DF901C
:1016A000CF9008952093B606BECF789484B582601B
:1016B00084BD84B5816084BD85B5826085BD85B5F6
:1016C000816085BD80916E00816080936E00109274
:1016D00081008091810082608093810080918100EF
:1016E0008160809381008091800081608093800080
:1016F0008091B10084608093B1008091B0008160DE
:101700008093B00080917A00846080937A00809109
:101710007A00826080937A0080917A008160809361
:101720007A0080917A00806880937A001092C100DC
:10173000E0913503F091360382E08083E09131033C
:10174000F09132031082E0913303F09134038FEC77
:10175000808310923D03E0913903F0913A0386E0D3
:101760008083E0913703F09138038081806180832A
:10177000E0913703F0913803808188608083E091A5
:101780003703F0913803808180688083E0913703CC
:10179000F091380380818F7D808360E082E00E9439
:1017A000800260E084E00E9480028091B6068C3066
:1017B00008F051C061E083E00E9480028091B6068B
:1017C000282F30E0F901EE0FFF1FE20FF31FE5585D
:1017D000F94F9081907C936090831092B70610929D
:1017E000B8062CE0622F0E94720E829FB001112475
:1017F00030E020E0AB01420F531FFA01EE0FFF1F54
:10180000E40FF51FE558F94F908196FD16C02F5F44
:101810003F4F2C30310571F781110FC010928000BD
:1018200082E0809381001092850010928400B19A2A
:1018300080916F00826080936F00E091B6068E2FDA
:1018400090E0FC01EE0FFF1FE80FF91FE558F94F7C
:101850008081806480838AE590E00E948C001092F1
:101860001C0310921B0310921A03109219030E947A
:10187000AC0381EF90E0909318038093170382EFFD
:1018800090E090931603809315031092BE0680910A
:10189000C306823018F098E09093BE068093C1068C
:1018A00062E370E080E090E00E94E1026091C40693
:1018B00089EB96E00E94710468EE73E080E090E0AE
:1018C0000E94E10260E389EB96E00E948305CBE48D
:1018D000D6E4CE010197F1F760E389EB96E00E9430
:1018E00083052197F1F760E389EB96E00E94830579
:1018F00083E592E00197F1F760E289EB96E00E94C0
:1019000083056091BE06606240E089EB96E00E942C
:101910009C0584E08093BF0640E06CE089EB96E094
:101920000E949C0540E061E089EB96E00E949C05E6
:10193000CBE3DFE1CE010197F1F782E08093C006AF
:1019400040E066E089EB96E00E949C0540E062E0A2
:1019500089EB96E00E949C05CE010197F1F788E0A3
:101960008093C40660E089EB96E00E94710460E019
:1019700082E00E94B30564E671E089EB96E00E9484
:10198000CB0661E083E00E94B30560E771E089EB7C
:1019900096E00E94CB0660ED77E080E090E00E9448
:1019A000E10240E061E089EB96E00E949C0521970E
:1019B000F1F764E671E085E293E00E94CB060E94B5
:1019C0005B052091230330912403809121039091A2
:1019D0002203280F391F8091050190910601821B77
:1019E000930B909306018093050180E0E82E80E040
:1019F000F82E01E010E00E945B0560E080E00E94AC
:101A0000B30567E771E089EB96E00E94CB06609131
:101A100005017091060189EB96E00E94470662E895
:101A200071E089EB96E00E94CB0661E080E00E94C5
:101A3000B30567E871E089EB96E00E94CB068091E0
:101A400023039091240363E571E01816190614F03E
:101A500069E571E089EB96E00E94CB0661E089E0E0
:101A60000E94B3056BE871E089EB96E00E94CB061B
:101A7000809121039091220363E571E01816190605
:101A800014F069E571E089EB96E00E94CB066FE8FF
:101A900071E085E293E00E94CB06609105017091B0
:101AA000060185E293E00E94470667E871E085E25F
:101AB00093E00E94CB0680912303909124036FE56D
:101AC00071E01816190614F069E571E085E293E0FB
:101AD0000E94CB066BE871E085E293E00E94CB06A2
:101AE00080912103909122036FE571E01816190689
:101AF00014F069E571E085E293E00E94CB0682E094
:101B00000E942902892B01F580911F0390912003E7
:101B1000892BD1F4C0910501D09106011C161D0638
:101B2000D4F51093200300931F0380911D0390911F
:101B30001E03892B49F484EB90E00E948C002197CE
:101B4000D0930601C093050184E00E9429022091F0
:101B50001F0330912003892BA9F12130310509F0B1
:101B60004CC080911D0390911E03019709F045C060
:101B700068EE73E080E090E00E94E1028AE590E088
:101B80000E948C001092200310921F0310921E03DB
:101B900010921D0332C060E080E00E94B30564EA49
:101BA00071E089EB96E00E94CB066EE971E085E278
:101BB00093E00E94CB066CED75E080E090E00E941F
:101BC000E102C2CF80911D0390911E03892B29F65B
:101BD00010931E0300931D032115310509F0BDCF9D
:101BE00084EB90E00E948C008091050190910601A9
:101BF0000196909306018093050164E670E080E011
:101C000090E00E94E102E114F10409F4F4CE0E9494
:101C10005D01882309F4EFCE0E940000ECCEA1E222
:101C20001A2EAA1BBB1BFD010DC0AA1FBB1FEE1F56
:101C3000FF1FA217B307E407F50720F0A21BB30BA1
:101C4000E40BF50B661F771F881F991F1A9469F71D
:101C500060957095809590959B01AC01BD01CF0179
:101C60000895052E97FB1EF400940E94480E57FD20
:101C700007D00E940F0E07FC03D04EF40C94480EC0
:101C800050954095309521953F4F4F4F5F4F0895A8
:101C900090958095709561957F4F8F4F9F4F0895D8
:101CA0000E94630EA59F900DB49F900DA49F800D80
:101CB000911D11240895B7FF0C94500E0E94500EF0
:101CC000821B930B0895A29FB001B39FC001A39FF5
:101CD000700D811D1124911DB29F700D811D112465
:101CE000911D0895991B79E004C0991F961708F07B
:101CF000961B881F7A95C9F780950895EE0FFF1FF0
:101D00000590F491E02D09940F931F93CF93DF93E7
:101D10008230910510F482E090E0E091CD06F091E0
:101D2000CE0630E020E0B0E0A0E0309799F4211535
:101D3000310509F44AC0281B390B24303105D8F588
:101D40008A819B816115710589F1FB0193838283EF
:101D5000FE0111C04081518102811381481759074A
:101D6000E0F04817590799F4109761F012960C9318
:101D7000129713961C933296CF01DF91CF911F914A
:101D80000F9108950093CD061093CE06F4CF211540
:101D9000310551F04217530738F0A901DB019A01D0
:101DA000BD01DF01F801C1CFEF01F9CF9093CE065D
:101DB0008093CD06CDCFFE01E20FF31F8193919367
:101DC0002250310939832883D7CF2091CB06309117
:101DD000CC06232B41F42091090130910A01309364
:101DE000CC062093CB0620910701309108012115E4
:101DF000310541F42DB73EB740910B0150910C01D4
:101E0000241B350BE091CB06F091CC06E217F307CB
:101E1000A0F42E1B3F0B2817390778F0AC014E5F5A
:101E20005F4F2417350748F04E0F5F1F5093CC06C5
:101E30004093CB06819391939FCFF0E0E0E09CCF5D
:101E4000CF93DF930097E9F0FC013297138212825F
:101E5000A091CD06B091CE06ED0130E020E01097C4
:101E6000A1F420813181820F931F2091CB06309104
:101E7000CC062817390709F061C0F093CC06E0932F
:101E8000CB06DF91CF910895EA01CE17DF07E8F581
:101E90004A815B819E0141155105B1F7E901FB8340
:101EA000EA8349915991C40FD51FEC17FD0761F4DE
:101EB000808191810296840F951FE901998388831F
:101EC000828193819B838A83F0E0E0E012968D917A
:101ED0009C9113970097B9F52D913C911197CD01E5
:101EE0000296820F931F2091CB063091CC062817C3
:101EF000390739F6309751F51092CE061092CD067B
:101F0000B093CC06A093CB06BCCFD383C2834081D1
:101F10005181840F951FC817D90761F44E5F5F4F39
:101F200088819981480F591F518340838A819B8101
:101F3000938382832115310509F0B0CFF093CE064B
:101F4000E093CD069ECFFD01DC01C0CF138212824B
:061F5000D7CFF894FFCF8B
:101F5600011303130302000000CF068000000040B7
:101F66000014005400000000009301F3002001E07B
:101F76000151012F014301000000001403CD0600AA
:101F8600000000420415045805EB030E04FB03ECA5
:101F96000300000000E605F3005805840300000076
:101FA60000810646696C6C2000456D7074790046A8
:101FB600696C6C00436172207061726B696E6700B8
:101FC60053797374656D004861766520536C6F7440
:101FD6003A00202020200053313A0053323A0020A4
:101FE60020204861766520536C6F743A2000205398
:101FF6006F727279205061726B696E672046756CDC
:042006006C2000004A
:00000001FF
